{
  "_format": "hh3-artifact-1",
  "contractName": "TankBlitz",
  "sourceName": "contracts/TankBlitz.sol",
  "abi": [
    {
      "inputs": [
        {
          "internalType": "address",
          "name": "_server",
          "type": "address"
        }
      ],
      "stateMutability": "nonpayable",
      "type": "constructor"
    },
    {
      "anonymous": false,
      "inputs": [
        {
          "indexed": true,
          "internalType": "uint256",
          "name": "gameId",
          "type": "uint256"
        }
      ],
      "name": "GameCreated",
      "type": "event"
    },
    {
      "anonymous": false,
      "inputs": [
        {
          "indexed": true,
          "internalType": "uint256",
          "name": "gameId",
          "type": "uint256"
        },
        {
          "indexed": true,
          "internalType": "address",
          "name": "winner",
          "type": "address"
        },
        {
          "indexed": false,
          "internalType": "uint256",
          "name": "ownerPayout",
          "type": "uint256"
        },
        {
          "indexed": false,
          "internalType": "uint256",
          "name": "winnerPayout",
          "type": "uint256"
        }
      ],
      "name": "GameEnded",
      "type": "event"
    },
    {
      "anonymous": false,
      "inputs": [
        {
          "indexed": true,
          "internalType": "uint256",
          "name": "gameId",
          "type": "uint256"
        }
      ],
      "name": "GameStarted",
      "type": "event"
    },
    {
      "anonymous": false,
      "inputs": [
        {
          "indexed": true,
          "internalType": "uint256",
          "name": "gameId",
          "type": "uint256"
        },
        {
          "indexed": true,
          "internalType": "address",
          "name": "killer",
          "type": "address"
        },
        {
          "indexed": true,
          "internalType": "address",
          "name": "victim",
          "type": "address"
        },
        {
          "indexed": false,
          "internalType": "uint256",
          "name": "monTransferred",
          "type": "uint256"
        }
      ],
      "name": "KillRecorded",
      "type": "event"
    },
    {
      "anonymous": false,
      "inputs": [
        {
          "indexed": true,
          "internalType": "uint256",
          "name": "gameId",
          "type": "uint256"
        },
        {
          "indexed": true,
          "internalType": "address",
          "name": "player",
          "type": "address"
        }
      ],
      "name": "PlayerJoined",
      "type": "event"
    },
    {
      "anonymous": false,
      "inputs": [
        {
          "indexed": true,
          "internalType": "uint256",
          "name": "gameId",
          "type": "uint256"
        },
        {
          "indexed": true,
          "internalType": "address",
          "name": "shooter",
          "type": "address"
        }
      ],
      "name": "ShotFired",
      "type": "event"
    },
    {
      "inputs": [],
      "name": "AMMO_PRICE",
      "outputs": [
        {
          "internalType": "uint256",
          "name": "",
          "type": "uint256"
        }
      ],
      "stateMutability": "view",
      "type": "function"
    },
    {
      "inputs": [],
      "name": "ATTACK_POWER",
      "outputs": [
        {
          "internalType": "uint16",
          "name": "",
          "type": "uint16"
        }
      ],
      "stateMutability": "view",
      "type": "function"
    },
    {
      "inputs": [],
      "name": "MAX_AMMO",
      "outputs": [
        {
          "internalType": "uint16",
          "name": "",
          "type": "uint16"
        }
      ],
      "stateMutability": "view",
      "type": "function"
    },
    {
      "inputs": [],
      "name": "MAX_PLAYERS",
      "outputs": [
        {
          "internalType": "uint8",
          "name": "",
          "type": "uint8"
        }
      ],
      "stateMutability": "view",
      "type": "function"
    },
    {
      "inputs": [],
      "name": "MIN_AMMO",
      "outputs": [
        {
          "internalType": "uint16",
          "name": "",
          "type": "uint16"
        }
      ],
      "stateMutability": "view",
      "type": "function"
    },
    {
      "inputs": [],
      "name": "MIN_PLAYERS",
      "outputs": [
        {
          "internalType": "uint8",
          "name": "",
          "type": "uint8"
        }
      ],
      "stateMutability": "view",
      "type": "function"
    },
    {
      "inputs": [],
      "name": "PROTOCOL_FEE_BPS",
      "outputs": [
        {
          "internalType": "uint256",
          "name": "",
          "type": "uint256"
        }
      ],
      "stateMutability": "view",
      "type": "function"
    },
    {
      "inputs": [],
      "name": "STARTING_HP",
      "outputs": [
        {
          "internalType": "uint16",
          "name": "",
          "type": "uint16"
        }
      ],
      "stateMutability": "view",
      "type": "function"
    },
    {
      "inputs": [],
      "name": "createGame",
      "outputs": [
        {
          "internalType": "uint256",
          "name": "gameId",
          "type": "uint256"
        }
      ],
      "stateMutability": "nonpayable",
      "type": "function"
    },
    {
      "inputs": [
        {
          "internalType": "uint256",
          "name": "gameId",
          "type": "uint256"
        },
        {
          "internalType": "address",
          "name": "winner",
          "type": "address"
        }
      ],
      "name": "endGame",
      "outputs": [],
      "stateMutability": "nonpayable",
      "type": "function"
    },
    {
      "inputs": [
        {
          "internalType": "uint256",
          "name": "gameId",
          "type": "uint256"
        }
      ],
      "name": "getGameInfo",
      "outputs": [
        {
          "internalType": "uint8",
          "name": "status",
          "type": "uint8"
        },
        {
          "internalType": "uint256",
          "name": "playerCount",
          "type": "uint256"
        },
        {
          "internalType": "uint256",
          "name": "prizePool",
          "type": "uint256"
        }
      ],
      "stateMutability": "view",
      "type": "function"
    },
    {
      "inputs": [
        {
          "internalType": "uint256",
          "name": "gameId",
          "type": "uint256"
        },
        {
          "internalType": "address",
          "name": "player",
          "type": "address"
        }
      ],
      "name": "getPlayer",
      "outputs": [
        {
          "internalType": "uint256",
          "name": "monBalance",
          "type": "uint256"
        },
        {
          "internalType": "uint16",
          "name": "hp",
          "type": "uint16"
        },
        {
          "internalType": "uint16",
          "name": "ammo",
          "type": "uint16"
        },
        {
          "internalType": "uint16",
          "name": "attackPower",
          "type": "uint16"
        },
        {
          "internalType": "bool",
          "name": "joined",
          "type": "bool"
        }
      ],
      "stateMutability": "view",
      "type": "function"
    },
    {
      "inputs": [
        {
          "internalType": "uint256",
          "name": "gameId",
          "type": "uint256"
        }
      ],
      "name": "getPlayerList",
      "outputs": [
        {
          "internalType": "address[]",
          "name": "",
          "type": "address[]"
        }
      ],
      "stateMutability": "view",
      "type": "function"
    },
    {
      "inputs": [
        {
          "internalType": "address",
          "name": "player",
          "type": "address"
        }
      ],
      "name": "getPlayerStats",
      "outputs": [
        {
          "internalType": "uint256",
          "name": "wins",
          "type": "uint256"
        },
        {
          "internalType": "uint256",
          "name": "kills",
          "type": "uint256"
        },
        {
          "internalType": "uint256",
          "name": "earnings",
          "type": "uint256"
        }
      ],
      "stateMutability": "view",
      "type": "function"
    },
    {
      "inputs": [],
      "name": "nextGameId",
      "outputs": [
        {
          "internalType": "uint256",
          "name": "",
          "type": "uint256"
        }
      ],
      "stateMutability": "view",
      "type": "function"
    },
    {
      "inputs": [],
      "name": "owner",
      "outputs": [
        {
          "internalType": "address",
          "name": "",
          "type": "address"
        }
      ],
      "stateMutability": "view",
      "type": "function"
    },
    {
      "inputs": [
        {
          "internalType": "uint256",
          "name": "gameId",
          "type": "uint256"
        },
        {
          "internalType": "address",
          "name": "killer",
          "type": "address"
        },
        {
          "internalType": "address",
          "name": "victim",
          "type": "address"
        }
      ],
      "name": "recordKill",
      "outputs": [],
      "stateMutability": "nonpayable",
      "type": "function"
    },
    {
      "inputs": [
        {
          "internalType": "uint256",
          "name": "gameId",
          "type": "uint256"
        },
        {
          "internalType": "address",
          "name": "shooter",
          "type": "address"
        }
      ],
      "name": "recordShot",
      "outputs": [],
      "stateMutability": "nonpayable",
      "type": "function"
    },
    {
      "inputs": [
        {
          "internalType": "uint256",
          "name": "gameId",
          "type": "uint256"
        },
        {
          "internalType": "uint256",
          "name": "ammoCount",
          "type": "uint256"
        }
      ],
      "name": "registerPlayer",
      "outputs": [],
      "stateMutability": "payable",
      "type": "function"
    },
    {
      "inputs": [],
      "name": "server",
      "outputs": [
        {
          "internalType": "address",
          "name": "",
          "type": "address"
        }
      ],
      "stateMutability": "view",
      "type": "function"
    },
    {
      "inputs": [
        {
          "internalType": "uint256",
          "name": "gameId",
          "type": "uint256"
        }
      ],
      "name": "startGame",
      "outputs": [],
      "stateMutability": "nonpayable",
      "type": "function"
    },
    {
      "inputs": [
        {
          "internalType": "address",
          "name": "",
          "type": "address"
        }
      ],
      "name": "totalEarnings",
      "outputs": [
        {
          "internalType": "uint256",
          "name": "",
          "type": "uint256"
        }
      ],
      "stateMutability": "view",
      "type": "function"
    },
    {
      "inputs": [
        {
          "internalType": "address",
          "name": "",
          "type": "address"
        }
      ],
      "name": "totalKills",
      "outputs": [
        {
          "internalType": "uint256",
          "name": "",
          "type": "uint256"
        }
      ],
      "stateMutability": "view",
      "type": "function"
    },
    {
      "inputs": [
        {
          "internalType": "address",
          "name": "",
          "type": "address"
        }
      ],
      "name": "totalWins",
      "outputs": [
        {
          "internalType": "uint256",
          "name": "",
          "type": "uint256"
        }
      ],
      "stateMutability": "view",
      "type": "function"
    },
    {
      "stateMutability": "payable",
      "type": "receive"
    }
  ],
  "bytecode": "0x60a060405234801561000f575f80fd5b5060405161179938038061179983398101604081905261002e91610093565b6001600160a01b0381166100715760405162461bcd60e51b815260206004820152600660248201526529b2b93b32b960d11b604482015260640160405180910390fd5b6001600160a01b03166080525f80546001600160a01b031916331790556100c0565b5f602082840312156100a3575f80fd5b81516001600160a01b03811681146100b9575f80fd5b9392505050565b60805161169e6100fb5f395f81816105570152818161061601528181610b9a01528181610c3f0152818161103b01526112cb015261169e5ff3fe60806040526004361061014a575f3560e01c806386514131116100b3578063be3782281161006d578063be378228146104ae578063bf8daf20146104c3578063c0779532146104ee578063d266d7ba1461050d578063e5ed1d5914610527578063fd922a4214610546575f80fd5b806386514131146103f15780638da5cb5b146104105780639215aa511461044657806396e9b0e21461045a578063b04896df14610485578063b135bbb014610499575f80fd5b80636454e58d116101045780636454e58d146102c45780636e6854ff146103695780637255d729146103905780637675e0221461036957806385117005146103b257806385f07bbe146103dd575f80fd5b8063200ad21b1461019157806325ee2686146101c65780632f74de99146101e75780634411b3eb146101fa57806347e1d550146102205780634fd66eae1461025e575f80fd5b3661018d5760405162461bcd60e51b815260206004820152600e60248201526d139bc8191a5c9958dd081cd95b9960921b60448201526064015b60405180910390fd5b5f80fd5b34801561019c575f80fd5b506101b06101ab36600461141a565b610579565b6040516101bd9190611431565b60405180910390f35b3480156101d1575f80fd5b506101e56101e0366004611498565b61060b565b005b6101e56101f53660046114d1565b610873565b348015610205575f80fd5b5061020e600581565b60405160ff90911681526020016101bd565b34801561022b575f80fd5b5061023f61023a36600461141a565b610b2f565b6040805160ff90941684526020840192909252908201526060016101bd565b348015610269575f80fd5b506102a96102783660046114f1565b6001600160a01b03165f90815260036020908152604080832054600483528184205460059093529220549192909190565b604080519384526020840192909252908201526060016101bd565b3480156102cf575f80fd5b506103366102de366004611511565b5f9182526001602081815260408085206001600160a01b039490941685526002909301905291208054910154909161ffff80831692620100008104821692640100000000820490921691600160301b90910460ff1690565b6040805195865261ffff94851660208701529284169285019290925290911660608301521515608082015260a0016101bd565b348015610374575f80fd5b5061037d606481565b60405161ffff90911681526020016101bd565b34801561039b575f80fd5b506103a4610b8e565b6040519081526020016101bd565b3480156103bd575f80fd5b506103a46103cc3660046114f1565b60056020525f908152604090205481565b3480156103e8575f80fd5b5061020e600281565b3480156103fc575f80fd5b506101e561040b366004611511565b610c34565b34801561041b575f80fd5b505f5461042e906001600160a01b031681565b6040516001600160a01b0390911681526020016101bd565b348015610451575f80fd5b5061037d603281565b348015610465575f80fd5b506103a46104743660046114f1565b60036020525f908152604090205481565b348015610490575f80fd5b5061037d600a81565b3480156104a4575f80fd5b506103a460025481565b3480156104b9575f80fd5b506103a46101f481565b3480156104ce575f80fd5b506103a46104dd3660046114f1565b60046020525f908152604090205481565b3480156104f9575f80fd5b506101e5610508366004611511565b611030565b348015610518575f80fd5b506103a4662386f26fc1000081565b348015610532575f80fd5b506101e561054136600461141a565b6112c0565b348015610551575f80fd5b5061042e7f000000000000000000000000000000000000000000000000000000000000000081565b5f81815260016020526040902080546060919060ff166105a8575050604080515f815260208101909152919050565b806001018054806020026020016040519081016040528092919081815260200182805480156105fe57602002820191905f5260205f20905b81546001600160a01b031681526001909101906020018083116105e0575b5050505050915050919050565b336001600160a01b037f000000000000000000000000000000000000000000000000000000000000000016146106535760405162461bcd60e51b81526004016101849061153b565b5f838152600160205260409020805460ff166106815760405162461bcd60e51b81526004016101849061155f565b60018154610100900460ff16600281111561069e5761069e611580565b146106bb5760405162461bcd60e51b815260040161018490611594565b6001600160a01b0383165f908152600282016020526040902060010154600160301b900460ff16801561071157506001600160a01b0382165f908152600282016020526040902060010154600160301b900460ff165b61074b5760405162461bcd60e51b815260206004820152600b60248201526a4e6f7420706c617965727360a81b6044820152606401610184565b816001600160a01b0316836001600160a01b0316036107955760405162461bcd60e51b81526004016101849060208082526004908201526329b2b63360e11b604082015260600190565b6001600160a01b038083165f908152600283016020526040808220549286168252812080548392906107c89084906115cc565b90915550506001600160a01b038084165f90815260028401602090815260408083208381556001908101805461ffff1916905593881683526004909152812080549091906108179084906115cc565b92505081905550826001600160a01b0316846001600160a01b0316867f8e55b2482061eb0711ad0da64258fc5a4c2cdf72caf080344eb2622c0451c96b8460405161086491815260200190565b60405180910390a45050505050565b600a8110801590610885575060328111155b6108ba5760405162461bcd60e51b815260040161018490602080825260049082015263416d6d6f60e01b604082015260600190565b6108cb662386f26fc10000826115e5565b34146109035760405162461bcd60e51b815260206004820152600760248201526614185e5b595b9d60ca1b6044820152606401610184565b5f828152600160205260409020805460ff166109315760405162461bcd60e51b81526004016101849061155f565b5f8154610100900460ff16600281111561094d5761094d611580565b146109865760405162461bcd60e51b81526020600482015260096024820152684e6f74206c6f62627960b81b6044820152606401610184565b60018101546005116109c35760405162461bcd60e51b815260040161018490602080825260049082015263119d5b1b60e21b604082015260600190565b335f908152600282016020526040902060010154600160301b900460ff1615610a1f5760405162461bcd60e51b815260206004820152600e60248201526d105b1c9958591e481a9bda5b995960921b6044820152606401610184565b6040805160a081018252348082526064602080840182815261ffff88811686880190815260608701948552600160808801818152335f81815260028d0188529a8b2099518a55945198820180549351975191511515600160301b0266ff00000000000019928616640100000000029290921666ffffff0000000019988616620100000263ffffffff199095169a909516999099179290921795909516919091171790945585820180549283018155855284200180546001600160a01b03191690921790915560038301805491929091610af99084906115cc565b9091555050604051339084907f87969bc7faf902221a147b95ceba76e011c5efb0339a0a8ee7a2bb82d9cfbbd6905f90a3505050565b5f81815260016020526040812080548291829160ff16610b58575f805f93509350935050610b87565b8054610100900460ff166002811115610b7357610b73611580565b600182015460039092015490945090925090505b9193909250565b5f336001600160a01b037f00000000000000000000000000000000000000000000000000000000000000001614610bd75760405162461bcd60e51b81526004016101849061153b565b60025f8154610be5906115fc565b91829055505f818152600160208190526040808320805461ffff19169092178255519293509183917fbd19c47e9925eb6f7be8bb1c13a841e0240aaeaf17f217e90022e9c8eb66877f91a25090565b336001600160a01b037f00000000000000000000000000000000000000000000000000000000000000001614610c7c5760405162461bcd60e51b81526004016101849061153b565b5f54600160a01b900460ff1615610cc15760405162461bcd60e51b81526020600482015260096024820152681499595b9d1c985b9d60ba1b6044820152606401610184565b5f805460ff60a01b1916600160a01b178155828152600160205260409020805460ff16610d005760405162461bcd60e51b81526004016101849061155f565b60018154610100900460ff166002811115610d1d57610d1d611580565b14610d3a5760405162461bcd60e51b815260040161018490611594565b6001600160a01b0382165f908152600282016020526040902060010154600160301b900460ff16610d9a5760405162461bcd60e51b815260206004820152600a6024820152692737ba10383630bcb2b960b11b6044820152606401610184565b600381015447811115610dd95760405162461bcd60e51b815260206004820152600760248201526642616c616e636560c81b6044820152606401610184565b5f8111610e115760405162461bcd60e51b815260040161018490602080825260049082015263141bdbdb60e21b604082015260600190565b5f612710610e216101f4846115e5565b610e2b9190611614565b90505f610e388284611633565b6001600160a01b0386165f9081526003602052604081208054929350600192909190610e659084906115cc565b90915550506001600160a01b0385165f9081526005602052604081208054839290610e919084906115cc565b90915550505f600385018190556001600160a01b038681168252600286016020526040808320839055865461ff0019166102001787558254905191169084908381818185875af1925050503d805f8114610f06576040519150601f19603f3d011682016040523d82523d5f602084013e610f0b565b606091505b5050905080610f485760405162461bcd60e51b81526020600482015260096024820152684f776e65722070617960b81b6044820152606401610184565b5f866001600160a01b0316836040515f6040518083038185875af1925050503d805f8114610f91576040519150601f19603f3d011682016040523d82523d5f602084013e610f96565b606091505b5050905080610fd45760405162461bcd60e51b815260206004820152600a60248201526957696e6e65722070617960b01b6044820152606401610184565b60408051858152602081018590526001600160a01b038916918a917f64e67454795640f66cef8019a707b9381952f2f1024a355d5470bafc82af1800910160405180910390a350505f805460ff60a01b19169055505050505050565b336001600160a01b037f000000000000000000000000000000000000000000000000000000000000000016146110785760405162461bcd60e51b81526004016101849061153b565b5f828152600160205260409020805460ff166110a65760405162461bcd60e51b81526004016101849061155f565b60018154610100900460ff1660028111156110c3576110c3611580565b146110e05760405162461bcd60e51b815260040161018490611594565b6001600160a01b0382165f908152600282016020526040902060010154600160301b900460ff166111405760405162461bcd60e51b815260206004820152600a6024820152692737ba10383630bcb2b960b11b6044820152606401610184565b6001600160a01b0382165f908152600282016020526040902054662386f26fc10000111561119d5760405162461bcd60e51b815260206004820152600a6024820152694e6f2062616c616e636560b01b6044820152606401610184565b6001600160a01b0382165f90815260028201602052604090206001015462010000900461ffff166111fa5760405162461bcd60e51b81526020600482015260076024820152664e6f20616d6d6f60c81b6044820152606401610184565b6001600160a01b0382165f90815260028201602052604081208054662386f26fc10000929061122a908490611633565b90915550506001600160a01b0382165f90815260028281016020526040909120600190810180549192909161126a90849062010000900461ffff16611646565b92506101000a81548161ffff021916908361ffff160217905550816001600160a01b0316837f436f1c6b04e762cf0d66f79e9ed6387efccca2c6d05b9cf9faf71f2aef6ac0fa60405160405180910390a3505050565b336001600160a01b037f000000000000000000000000000000000000000000000000000000000000000016146113085760405162461bcd60e51b81526004016101849061153b565b5f818152600160205260409020805460ff166113365760405162461bcd60e51b81526004016101849061155f565b5f8154610100900460ff16600281111561135257611352611580565b1461138c5760405162461bcd60e51b815260206004820152600a6024820152694261642073746174757360b01b6044820152606401610184565b6001810154600281108015906113a3575060058111155b6113de5760405162461bcd60e51b815260206004820152600c60248201526b141b185e595c8818dbdd5b9d60a21b6044820152606401610184565b815461ff00191661010017825560405183907f50ad08f58a27f2851d7e3a1b3a6a46b290f2ce677e99642d30ff639721e77790905f90a2505050565b5f6020828403121561142a575f80fd5b5035919050565b602080825282518282018190525f9190848201906040850190845b818110156114715783516001600160a01b03168352928401929184019160010161144c565b50909695505050505050565b80356001600160a01b0381168114611493575f80fd5b919050565b5f805f606084860312156114aa575f80fd5b833592506114ba6020850161147d565b91506114c86040850161147d565b90509250925092565b5f80604083850312156114e2575f80fd5b50508035926020909101359150565b5f60208284031215611501575f80fd5b61150a8261147d565b9392505050565b5f8060408385031215611522575f80fd5b823591506115326020840161147d565b90509250929050565b6020808252600a90820152692737ba1039b2b93b32b960b11b604082015260600190565b6020808252600790820152664e6f2067616d6560c81b604082015260600190565b634e487b7160e01b5f52602160045260245ffd5b6020808252600a90820152694e6f742061637469766560b01b604082015260600190565b634e487b7160e01b5f52601160045260245ffd5b808201808211156115df576115df6115b8565b92915050565b80820281158282048414176115df576115df6115b8565b5f6001820161160d5761160d6115b8565b5060010190565b5f8261162e57634e487b7160e01b5f52601260045260245ffd5b500490565b818103818111156115df576115df6115b8565b61ffff828116828216039080821115611661576116616115b8565b509291505056fea2646970667358221220d5fca8e60c52d17d9327c782f37352369c9529db830b1c4118b537a35201bb5364736f6c63430008140033",
  "linkReferences": {},
  "deployedLinkReferences": {},
  "immutableReferences": {
    "4": [
      {
        "length": 32,
        "start": 1367
      },
      {
        "length": 32,
        "start": 1558
      },
      {
        "length": 32,
        "start": 2970
      },
      {
        "length": 32,
        "start": 3135
      },
      {
        "length": 32,
        "start": 4155
      },
      {
        "length": 32,
        "start": 4811
      }
    ]
  },
  "inputSourceName": "project/contracts/TankBlitz.sol",
  "buildInfoId": "solc-0_8_20-1cfa13e64ed6cf546ad8ae2b0f35dc825d32ec02"
}