{
  "_format": "hh3-artifact-1",
  "contractName": "TankBlitz",
  "sourceName": "contracts/TankBlitz.sol",
  "abi": [
    {
      "inputs": [
        {
          "internalType": "address",
          "name": "_server",
          "type": "address"
        }
      ],
      "stateMutability": "nonpayable",
      "type": "constructor"
    },
    {
      "anonymous": false,
      "inputs": [
        {
          "indexed": true,
          "internalType": "uint256",
          "name": "gameId",
          "type": "uint256"
        }
      ],
      "name": "GameCreated",
      "type": "event"
    },
    {
      "anonymous": false,
      "inputs": [
        {
          "indexed": true,
          "internalType": "uint256",
          "name": "gameId",
          "type": "uint256"
        },
        {
          "indexed": true,
          "internalType": "address",
          "name": "winner",
          "type": "address"
        },
        {
          "indexed": false,
          "internalType": "uint256",
          "name": "ownerPayout",
          "type": "uint256"
        },
        {
          "indexed": false,
          "internalType": "uint256",
          "name": "winnerPayout",
          "type": "uint256"
        }
      ],
      "name": "GameEnded",
      "type": "event"
    },
    {
      "anonymous": false,
      "inputs": [
        {
          "indexed": true,
          "internalType": "uint256",
          "name": "gameId",
          "type": "uint256"
        }
      ],
      "name": "GameStarted",
      "type": "event"
    },
    {
      "anonymous": false,
      "inputs": [
        {
          "indexed": true,
          "internalType": "uint256",
          "name": "gameId",
          "type": "uint256"
        },
        {
          "indexed": true,
          "internalType": "address",
          "name": "killer",
          "type": "address"
        },
        {
          "indexed": true,
          "internalType": "address",
          "name": "victim",
          "type": "address"
        },
        {
          "indexed": false,
          "internalType": "uint256",
          "name": "monTransferred",
          "type": "uint256"
        }
      ],
      "name": "KillRecorded",
      "type": "event"
    },
    {
      "anonymous": false,
      "inputs": [
        {
          "indexed": true,
          "internalType": "uint256",
          "name": "gameId",
          "type": "uint256"
        },
        {
          "indexed": true,
          "internalType": "address",
          "name": "player",
          "type": "address"
        }
      ],
      "name": "PlayerJoined",
      "type": "event"
    },
    {
      "inputs": [],
      "name": "AMMO_PRICE",
      "outputs": [
        {
          "internalType": "uint256",
          "name": "",
          "type": "uint256"
        }
      ],
      "stateMutability": "view",
      "type": "function"
    },
    {
      "inputs": [],
      "name": "ATTACK_POWER",
      "outputs": [
        {
          "internalType": "uint16",
          "name": "",
          "type": "uint16"
        }
      ],
      "stateMutability": "view",
      "type": "function"
    },
    {
      "inputs": [],
      "name": "MAX_AMMO",
      "outputs": [
        {
          "internalType": "uint16",
          "name": "",
          "type": "uint16"
        }
      ],
      "stateMutability": "view",
      "type": "function"
    },
    {
      "inputs": [],
      "name": "MAX_PLAYERS",
      "outputs": [
        {
          "internalType": "uint8",
          "name": "",
          "type": "uint8"
        }
      ],
      "stateMutability": "view",
      "type": "function"
    },
    {
      "inputs": [],
      "name": "MIN_AMMO",
      "outputs": [
        {
          "internalType": "uint16",
          "name": "",
          "type": "uint16"
        }
      ],
      "stateMutability": "view",
      "type": "function"
    },
    {
      "inputs": [],
      "name": "MIN_PLAYERS",
      "outputs": [
        {
          "internalType": "uint8",
          "name": "",
          "type": "uint8"
        }
      ],
      "stateMutability": "view",
      "type": "function"
    },
    {
      "inputs": [],
      "name": "PROTOCOL_FEE_BPS",
      "outputs": [
        {
          "internalType": "uint256",
          "name": "",
          "type": "uint256"
        }
      ],
      "stateMutability": "view",
      "type": "function"
    },
    {
      "inputs": [],
      "name": "STARTING_HP",
      "outputs": [
        {
          "internalType": "uint16",
          "name": "",
          "type": "uint16"
        }
      ],
      "stateMutability": "view",
      "type": "function"
    },
    {
      "inputs": [],
      "name": "createGame",
      "outputs": [
        {
          "internalType": "uint256",
          "name": "gameId",
          "type": "uint256"
        }
      ],
      "stateMutability": "nonpayable",
      "type": "function"
    },
    {
      "inputs": [
        {
          "internalType": "uint256",
          "name": "gameId",
          "type": "uint256"
        },
        {
          "internalType": "address",
          "name": "winner",
          "type": "address"
        }
      ],
      "name": "endGame",
      "outputs": [],
      "stateMutability": "nonpayable",
      "type": "function"
    },
    {
      "inputs": [
        {
          "internalType": "uint256",
          "name": "gameId",
          "type": "uint256"
        }
      ],
      "name": "getGameInfo",
      "outputs": [
        {
          "internalType": "uint8",
          "name": "status",
          "type": "uint8"
        },
        {
          "internalType": "uint256",
          "name": "playerCount",
          "type": "uint256"
        },
        {
          "internalType": "uint256",
          "name": "prizePool",
          "type": "uint256"
        }
      ],
      "stateMutability": "view",
      "type": "function"
    },
    {
      "inputs": [
        {
          "internalType": "uint256",
          "name": "gameId",
          "type": "uint256"
        },
        {
          "internalType": "address",
          "name": "player",
          "type": "address"
        }
      ],
      "name": "getPlayer",
      "outputs": [
        {
          "internalType": "uint256",
          "name": "monBalance",
          "type": "uint256"
        },
        {
          "internalType": "uint16",
          "name": "hp",
          "type": "uint16"
        },
        {
          "internalType": "uint16",
          "name": "ammo",
          "type": "uint16"
        },
        {
          "internalType": "uint16",
          "name": "attackPower",
          "type": "uint16"
        },
        {
          "internalType": "bool",
          "name": "joined",
          "type": "bool"
        }
      ],
      "stateMutability": "view",
      "type": "function"
    },
    {
      "inputs": [
        {
          "internalType": "uint256",
          "name": "gameId",
          "type": "uint256"
        }
      ],
      "name": "getPlayerList",
      "outputs": [
        {
          "internalType": "address[]",
          "name": "",
          "type": "address[]"
        }
      ],
      "stateMutability": "view",
      "type": "function"
    },
    {
      "inputs": [],
      "name": "nextGameId",
      "outputs": [
        {
          "internalType": "uint256",
          "name": "",
          "type": "uint256"
        }
      ],
      "stateMutability": "view",
      "type": "function"
    },
    {
      "inputs": [],
      "name": "owner",
      "outputs": [
        {
          "internalType": "address",
          "name": "",
          "type": "address"
        }
      ],
      "stateMutability": "view",
      "type": "function"
    },
    {
      "inputs": [
        {
          "internalType": "uint256",
          "name": "gameId",
          "type": "uint256"
        },
        {
          "internalType": "address",
          "name": "killer",
          "type": "address"
        },
        {
          "internalType": "address",
          "name": "victim",
          "type": "address"
        }
      ],
      "name": "recordKill",
      "outputs": [],
      "stateMutability": "nonpayable",
      "type": "function"
    },
    {
      "inputs": [
        {
          "internalType": "uint256",
          "name": "gameId",
          "type": "uint256"
        },
        {
          "internalType": "uint256",
          "name": "ammoCount",
          "type": "uint256"
        }
      ],
      "name": "registerPlayer",
      "outputs": [],
      "stateMutability": "payable",
      "type": "function"
    },
    {
      "inputs": [],
      "name": "server",
      "outputs": [
        {
          "internalType": "address",
          "name": "",
          "type": "address"
        }
      ],
      "stateMutability": "view",
      "type": "function"
    },
    {
      "inputs": [
        {
          "internalType": "uint256",
          "name": "gameId",
          "type": "uint256"
        }
      ],
      "name": "startGame",
      "outputs": [],
      "stateMutability": "nonpayable",
      "type": "function"
    },
    {
      "stateMutability": "payable",
      "type": "receive"
    }
  ],
  "bytecode": "0x60a060405234801561000f575f80fd5b5060405161130c38038061130c83398101604081905261002e91610093565b6001600160a01b0381166100715760405162461bcd60e51b815260206004820152600660248201526529b2b93b32b960d11b604482015260640160405180910390fd5b6001600160a01b03166080525f80546001600160a01b031916331790556100c0565b5f602082840312156100a3575f80fd5b81516001600160a01b03811681146100b9575f80fd5b9392505050565b6080516112186100f45f395f818161041a015281816104d901528181610a4601528181610aeb0152610eab01526112185ff3fe608060405260043610610113575f3560e01c806385f07bbe1161009d578063b135bbb011610062578063b135bbb0146103a6578063be378228146103bb578063d266d7ba146103d0578063e5ed1d59146103ea578063fd922a4214610409575f80fd5b806385f07bbe1461031557806386514131146103295780638da5cb5b146103485780639215aa511461037e578063b04896df14610392575f80fd5b806347e1d550116100e357806347e1d550146101e95780636454e58d146102275780636e6854ff146102cc5780637255d729146102f35780637675e022146102cc575f80fd5b8063200ad21b1461015a57806325ee26861461018f5780632f74de99146101b05780634411b3eb146101c3575f80fd5b366101565760405162461bcd60e51b815260206004820152600e60248201526d139bc8191a5c9958dd081cd95b9960921b60448201526064015b60405180910390fd5b5f80fd5b348015610165575f80fd5b50610179610174366004610ffa565b61043c565b6040516101869190611011565b60405180910390f35b34801561019a575f80fd5b506101ae6101a9366004611078565b6104ce565b005b6101ae6101be3660046110b1565b61071f565b3480156101ce575f80fd5b506101d7600581565b60405160ff9091168152602001610186565b3480156101f4575f80fd5b50610208610203366004610ffa565b6109db565b6040805160ff9094168452602084019290925290820152606001610186565b348015610232575f80fd5b506102996102413660046110d1565b5f9182526001602081815260408085206001600160a01b039490941685526002909301905291208054910154909161ffff80831692620100008104821692640100000000820490921691600160301b90910460ff1690565b6040805195865261ffff94851660208701529284169285019290925290911660608301521515608082015260a001610186565b3480156102d7575f80fd5b506102e0606481565b60405161ffff9091168152602001610186565b3480156102fe575f80fd5b50610307610a3a565b604051908152602001610186565b348015610320575f80fd5b506101d7600281565b348015610334575f80fd5b506101ae6103433660046110d1565b610ae0565b348015610353575f80fd5b505f54610366906001600160a01b031681565b6040516001600160a01b039091168152602001610186565b348015610389575f80fd5b506102e0603281565b34801561039d575f80fd5b506102e0600a81565b3480156103b1575f80fd5b5061030760025481565b3480156103c6575f80fd5b506103076101f481565b3480156103db575f80fd5b50610307662386f26fc1000081565b3480156103f5575f80fd5b506101ae610404366004610ffa565b610ea0565b348015610414575f80fd5b506103667f000000000000000000000000000000000000000000000000000000000000000081565b5f81815260016020526040902080546060919060ff1661046b575050604080515f815260208101909152919050565b806001018054806020026020016040519081016040528092919081815260200182805480156104c157602002820191905f5260205f20905b81546001600160a01b031681526001909101906020018083116104a3575b5050505050915050919050565b336001600160a01b037f000000000000000000000000000000000000000000000000000000000000000016146105165760405162461bcd60e51b815260040161014d906110fb565b5f838152600160205260409020805460ff166105445760405162461bcd60e51b815260040161014d9061111f565b60018154610100900460ff16600281111561056157610561611140565b1461059b5760405162461bcd60e51b815260206004820152600a6024820152694e6f742061637469766560b01b604482015260640161014d565b6001600160a01b0383165f908152600282016020526040902060010154600160301b900460ff1680156105f157506001600160a01b0382165f908152600282016020526040902060010154600160301b900460ff165b61062b5760405162461bcd60e51b815260206004820152600b60248201526a4e6f7420706c617965727360a81b604482015260640161014d565b816001600160a01b0316836001600160a01b0316036106755760405162461bcd60e51b815260040161014d9060208082526004908201526329b2b63360e11b604082015260600190565b6001600160a01b038083165f908152600283016020526040808220549286168252812080548392906106a8908490611168565b90915550506001600160a01b038084165f8181526002850160205260408082209182556001909101805461ffff1916905551909186169087907f8e55b2482061eb0711ad0da64258fc5a4c2cdf72caf080344eb2622c0451c96b906107109086815260200190565b60405180910390a45050505050565b600a8110801590610731575060328111155b6107665760405162461bcd60e51b815260040161014d90602080825260049082015263416d6d6f60e01b604082015260600190565b610777662386f26fc1000082611181565b34146107af5760405162461bcd60e51b815260206004820152600760248201526614185e5b595b9d60ca1b604482015260640161014d565b5f828152600160205260409020805460ff166107dd5760405162461bcd60e51b815260040161014d9061111f565b5f8154610100900460ff1660028111156107f9576107f9611140565b146108325760405162461bcd60e51b81526020600482015260096024820152684e6f74206c6f62627960b81b604482015260640161014d565b600181015460051161086f5760405162461bcd60e51b815260040161014d90602080825260049082015263119d5b1b60e21b604082015260600190565b335f908152600282016020526040902060010154600160301b900460ff16156108cb5760405162461bcd60e51b815260206004820152600e60248201526d105b1c9958591e481a9bda5b995960921b604482015260640161014d565b6040805160a081018252348082526064602080840182815261ffff88811686880190815260608701948552600160808801818152335f81815260028d0188529a8b2099518a55945198820180549351975191511515600160301b0266ff00000000000019928616640100000000029290921666ffffff0000000019988616620100000263ffffffff199095169a909516999099179290921795909516919091171790945585820180549283018155855284200180546001600160a01b031916909217909155600383018054919290916109a5908490611168565b9091555050604051339084907f87969bc7faf902221a147b95ceba76e011c5efb0339a0a8ee7a2bb82d9cfbbd6905f90a3505050565b5f81815260016020526040812080548291829160ff16610a04575f805f93509350935050610a33565b8054610100900460ff166002811115610a1f57610a1f611140565b600182015460039092015490945090925090505b9193909250565b5f336001600160a01b037f00000000000000000000000000000000000000000000000000000000000000001614610a835760405162461bcd60e51b815260040161014d906110fb565b60025f8154610a9190611198565b91829055505f818152600160208190526040808320805461ffff19169092178255519293509183917fbd19c47e9925eb6f7be8bb1c13a841e0240aaeaf17f217e90022e9c8eb66877f91a25090565b336001600160a01b037f00000000000000000000000000000000000000000000000000000000000000001614610b285760405162461bcd60e51b815260040161014d906110fb565b5f54600160a01b900460ff1615610b6d5760405162461bcd60e51b81526020600482015260096024820152681499595b9d1c985b9d60ba1b604482015260640161014d565b5f805460ff60a01b1916600160a01b178155828152600160205260409020805460ff16610bac5760405162461bcd60e51b815260040161014d9061111f565b60018154610100900460ff166002811115610bc957610bc9611140565b14610c035760405162461bcd60e51b815260206004820152600a6024820152694e6f742061637469766560b01b604482015260640161014d565b6001600160a01b0382165f908152600282016020526040902060010154600160301b900460ff16610c635760405162461bcd60e51b815260206004820152600a6024820152692737ba10383630bcb2b960b11b604482015260640161014d565b600381015447811115610ca25760405162461bcd60e51b815260206004820152600760248201526642616c616e636560c81b604482015260640161014d565b5f8111610cda5760405162461bcd60e51b815260040161014d90602080825260049082015263141bdbdb60e21b604082015260600190565b5f612710610cea6101f484611181565b610cf491906111b0565b90505f610d0182846111cf565b5f600386018190556001600160a01b038781168252600287016020526040808320839055875461ff00191661020017885582549051939450919291169084908381818185875af1925050503d805f8114610d76576040519150601f19603f3d011682016040523d82523d5f602084013e610d7b565b606091505b5050905080610db85760405162461bcd60e51b81526020600482015260096024820152684f776e65722070617960b81b604482015260640161014d565b5f866001600160a01b0316836040515f6040518083038185875af1925050503d805f8114610e01576040519150601f19603f3d011682016040523d82523d5f602084013e610e06565b606091505b5050905080610e445760405162461bcd60e51b815260206004820152600a60248201526957696e6e65722070617960b01b604482015260640161014d565b60408051858152602081018590526001600160a01b038916918a917f64e67454795640f66cef8019a707b9381952f2f1024a355d5470bafc82af1800910160405180910390a350505f805460ff60a01b19169055505050505050565b336001600160a01b037f00000000000000000000000000000000000000000000000000000000000000001614610ee85760405162461bcd60e51b815260040161014d906110fb565b5f818152600160205260409020805460ff16610f165760405162461bcd60e51b815260040161014d9061111f565b5f8154610100900460ff166002811115610f3257610f32611140565b14610f6c5760405162461bcd60e51b815260206004820152600a6024820152694261642073746174757360b01b604482015260640161014d565b600181015460028110801590610f83575060058111155b610fbe5760405162461bcd60e51b815260206004820152600c60248201526b141b185e595c8818dbdd5b9d60a21b604482015260640161014d565b815461ff00191661010017825560405183907f50ad08f58a27f2851d7e3a1b3a6a46b290f2ce677e99642d30ff639721e77790905f90a2505050565b5f6020828403121561100a575f80fd5b5035919050565b602080825282518282018190525f9190848201906040850190845b818110156110515783516001600160a01b03168352928401929184019160010161102c565b50909695505050505050565b80356001600160a01b0381168114611073575f80fd5b919050565b5f805f6060848603121561108a575f80fd5b8335925061109a6020850161105d565b91506110a86040850161105d565b90509250925092565b5f80604083850312156110c2575f80fd5b50508035926020909101359150565b5f80604083850312156110e2575f80fd5b823591506110f26020840161105d565b90509250929050565b6020808252600a90820152692737ba1039b2b93b32b960b11b604082015260600190565b6020808252600790820152664e6f2067616d6560c81b604082015260600190565b634e487b7160e01b5f52602160045260245ffd5b634e487b7160e01b5f52601160045260245ffd5b8082018082111561117b5761117b611154565b92915050565b808202811582820484141761117b5761117b611154565b5f600182016111a9576111a9611154565b5060010190565b5f826111ca57634e487b7160e01b5f52601260045260245ffd5b500490565b8181038181111561117b5761117b61115456fea2646970667358221220744f0b7db96c7a7d750621bde30e67bb7dc32758ef9596f61538fd0615d393ca64736f6c63430008140033",
  "linkReferences": {},
  "deployedLinkReferences": {},
  "immutableReferences": {
    "4": [
      {
        "length": 32,
        "start": 1050
      },
      {
        "length": 32,
        "start": 1241
      },
      {
        "length": 32,
        "start": 2630
      },
      {
        "length": 32,
        "start": 2795
      },
      {
        "length": 32,
        "start": 3755
      }
    ]
  },
  "inputSourceName": "project/contracts/TankBlitz.sol",
  "buildInfoId": "solc-0_8_20-3869a5c2dec610d7cf7ec87c38801f97e27f844d"
}