{
  "_format": "hh3-artifact-1",
  "contractName": "TankBlitz",
  "sourceName": "contracts/TankBlitz.sol",
  "abi": [
    {
      "inputs": [
        {
          "internalType": "address",
          "name": "_server",
          "type": "address"
        }
      ],
      "stateMutability": "nonpayable",
      "type": "constructor"
    },
    {
      "anonymous": false,
      "inputs": [
        {
          "indexed": true,
          "internalType": "uint256",
          "name": "gameId",
          "type": "uint256"
        }
      ],
      "name": "GameCreated",
      "type": "event"
    },
    {
      "anonymous": false,
      "inputs": [
        {
          "indexed": true,
          "internalType": "uint256",
          "name": "gameId",
          "type": "uint256"
        },
        {
          "indexed": true,
          "internalType": "address",
          "name": "winner",
          "type": "address"
        },
        {
          "indexed": false,
          "internalType": "uint256",
          "name": "ownerPayout",
          "type": "uint256"
        },
        {
          "indexed": false,
          "internalType": "uint256",
          "name": "winnerPayout",
          "type": "uint256"
        }
      ],
      "name": "GameEnded",
      "type": "event"
    },
    {
      "anonymous": false,
      "inputs": [
        {
          "indexed": true,
          "internalType": "uint256",
          "name": "gameId",
          "type": "uint256"
        }
      ],
      "name": "GameStarted",
      "type": "event"
    },
    {
      "anonymous": false,
      "inputs": [
        {
          "indexed": true,
          "internalType": "uint256",
          "name": "gameId",
          "type": "uint256"
        },
        {
          "indexed": true,
          "internalType": "address",
          "name": "killer",
          "type": "address"
        },
        {
          "indexed": true,
          "internalType": "address",
          "name": "victim",
          "type": "address"
        },
        {
          "indexed": false,
          "internalType": "uint256",
          "name": "monTransferred",
          "type": "uint256"
        }
      ],
      "name": "KillRecorded",
      "type": "event"
    },
    {
      "anonymous": false,
      "inputs": [
        {
          "indexed": true,
          "internalType": "uint256",
          "name": "gameId",
          "type": "uint256"
        },
        {
          "indexed": true,
          "internalType": "address",
          "name": "player",
          "type": "address"
        }
      ],
      "name": "PlayerJoined",
      "type": "event"
    },
    {
      "anonymous": false,
      "inputs": [
        {
          "indexed": true,
          "internalType": "uint256",
          "name": "gameId",
          "type": "uint256"
        },
        {
          "indexed": true,
          "internalType": "address",
          "name": "shooter",
          "type": "address"
        }
      ],
      "name": "ShotFired",
      "type": "event"
    },
    {
      "inputs": [],
      "name": "AMMO_PRICE",
      "outputs": [
        {
          "internalType": "uint256",
          "name": "",
          "type": "uint256"
        }
      ],
      "stateMutability": "view",
      "type": "function"
    },
    {
      "inputs": [],
      "name": "ATTACK_POWER",
      "outputs": [
        {
          "internalType": "uint16",
          "name": "",
          "type": "uint16"
        }
      ],
      "stateMutability": "view",
      "type": "function"
    },
    {
      "inputs": [],
      "name": "MAX_AMMO",
      "outputs": [
        {
          "internalType": "uint16",
          "name": "",
          "type": "uint16"
        }
      ],
      "stateMutability": "view",
      "type": "function"
    },
    {
      "inputs": [],
      "name": "MAX_PLAYERS",
      "outputs": [
        {
          "internalType": "uint8",
          "name": "",
          "type": "uint8"
        }
      ],
      "stateMutability": "view",
      "type": "function"
    },
    {
      "inputs": [],
      "name": "MIN_AMMO",
      "outputs": [
        {
          "internalType": "uint16",
          "name": "",
          "type": "uint16"
        }
      ],
      "stateMutability": "view",
      "type": "function"
    },
    {
      "inputs": [],
      "name": "MIN_PLAYERS",
      "outputs": [
        {
          "internalType": "uint8",
          "name": "",
          "type": "uint8"
        }
      ],
      "stateMutability": "view",
      "type": "function"
    },
    {
      "inputs": [],
      "name": "PROTOCOL_FEE_BPS",
      "outputs": [
        {
          "internalType": "uint256",
          "name": "",
          "type": "uint256"
        }
      ],
      "stateMutability": "view",
      "type": "function"
    },
    {
      "inputs": [],
      "name": "STARTING_HP",
      "outputs": [
        {
          "internalType": "uint16",
          "name": "",
          "type": "uint16"
        }
      ],
      "stateMutability": "view",
      "type": "function"
    },
    {
      "inputs": [],
      "name": "createGame",
      "outputs": [
        {
          "internalType": "uint256",
          "name": "gameId",
          "type": "uint256"
        }
      ],
      "stateMutability": "nonpayable",
      "type": "function"
    },
    {
      "inputs": [
        {
          "internalType": "uint256",
          "name": "gameId",
          "type": "uint256"
        },
        {
          "internalType": "address",
          "name": "winner",
          "type": "address"
        }
      ],
      "name": "endGame",
      "outputs": [],
      "stateMutability": "nonpayable",
      "type": "function"
    },
    {
      "inputs": [
        {
          "internalType": "uint256",
          "name": "gameId",
          "type": "uint256"
        }
      ],
      "name": "getGameInfo",
      "outputs": [
        {
          "internalType": "uint8",
          "name": "status",
          "type": "uint8"
        },
        {
          "internalType": "uint256",
          "name": "playerCount",
          "type": "uint256"
        },
        {
          "internalType": "uint256",
          "name": "prizePool",
          "type": "uint256"
        }
      ],
      "stateMutability": "view",
      "type": "function"
    },
    {
      "inputs": [
        {
          "internalType": "uint256",
          "name": "gameId",
          "type": "uint256"
        },
        {
          "internalType": "address",
          "name": "player",
          "type": "address"
        }
      ],
      "name": "getPlayer",
      "outputs": [
        {
          "internalType": "uint256",
          "name": "monBalance",
          "type": "uint256"
        },
        {
          "internalType": "uint16",
          "name": "hp",
          "type": "uint16"
        },
        {
          "internalType": "uint16",
          "name": "ammo",
          "type": "uint16"
        },
        {
          "internalType": "uint16",
          "name": "attackPower",
          "type": "uint16"
        },
        {
          "internalType": "bool",
          "name": "joined",
          "type": "bool"
        }
      ],
      "stateMutability": "view",
      "type": "function"
    },
    {
      "inputs": [
        {
          "internalType": "uint256",
          "name": "gameId",
          "type": "uint256"
        }
      ],
      "name": "getPlayerList",
      "outputs": [
        {
          "internalType": "address[]",
          "name": "",
          "type": "address[]"
        }
      ],
      "stateMutability": "view",
      "type": "function"
    },
    {
      "inputs": [],
      "name": "nextGameId",
      "outputs": [
        {
          "internalType": "uint256",
          "name": "",
          "type": "uint256"
        }
      ],
      "stateMutability": "view",
      "type": "function"
    },
    {
      "inputs": [],
      "name": "owner",
      "outputs": [
        {
          "internalType": "address",
          "name": "",
          "type": "address"
        }
      ],
      "stateMutability": "view",
      "type": "function"
    },
    {
      "inputs": [
        {
          "internalType": "uint256",
          "name": "gameId",
          "type": "uint256"
        },
        {
          "internalType": "address",
          "name": "killer",
          "type": "address"
        },
        {
          "internalType": "address",
          "name": "victim",
          "type": "address"
        }
      ],
      "name": "recordKill",
      "outputs": [],
      "stateMutability": "nonpayable",
      "type": "function"
    },
    {
      "inputs": [
        {
          "internalType": "uint256",
          "name": "gameId",
          "type": "uint256"
        },
        {
          "internalType": "address",
          "name": "shooter",
          "type": "address"
        }
      ],
      "name": "recordShot",
      "outputs": [],
      "stateMutability": "nonpayable",
      "type": "function"
    },
    {
      "inputs": [
        {
          "internalType": "uint256",
          "name": "gameId",
          "type": "uint256"
        },
        {
          "internalType": "uint256",
          "name": "ammoCount",
          "type": "uint256"
        }
      ],
      "name": "registerPlayer",
      "outputs": [],
      "stateMutability": "payable",
      "type": "function"
    },
    {
      "inputs": [],
      "name": "server",
      "outputs": [
        {
          "internalType": "address",
          "name": "",
          "type": "address"
        }
      ],
      "stateMutability": "view",
      "type": "function"
    },
    {
      "inputs": [
        {
          "internalType": "uint256",
          "name": "gameId",
          "type": "uint256"
        }
      ],
      "name": "startGame",
      "outputs": [],
      "stateMutability": "nonpayable",
      "type": "function"
    },
    {
      "stateMutability": "payable",
      "type": "receive"
    }
  ],
  "bytecode": "0x60a060405234801561000f575f80fd5b506040516115d93803806115d983398101604081905261002e91610093565b6001600160a01b0381166100715760405162461bcd60e51b815260206004820152600660248201526529b2b93b32b960d11b604482015260640160405180910390fd5b6001600160a01b03166080525f80546001600160a01b031916331790556100c0565b5f602082840312156100a3575f80fd5b81516001600160a01b03811681146100b9575f80fd5b9392505050565b6080516114de6100fb5f395f81816104440152818161050301528181610a5301528181610af801528181610e9b015261112b01526114de5ff3fe60806040526004361061011e575f3560e01c8063865141311161009d578063be37822811610062578063be378228146103c6578063c0779532146103db578063d266d7ba146103fa578063e5ed1d5914610414578063fd922a4214610433575f80fd5b806386514131146103345780638da5cb5b146103535780639215aa5114610389578063b04896df1461039d578063b135bbb0146103b1575f80fd5b80636454e58d116100e35780636454e58d146102325780636e6854ff146102d75780637255d729146102fe5780637675e022146102d757806385f07bbe14610320575f80fd5b8063200ad21b1461016557806325ee26861461019a5780632f74de99146101bb5780634411b3eb146101ce57806347e1d550146101f4575f80fd5b366101615760405162461bcd60e51b815260206004820152600e60248201526d139bc8191a5c9958dd081cd95b9960921b60448201526064015b60405180910390fd5b5f80fd5b348015610170575f80fd5b5061018461017f36600461127a565b610466565b6040516101919190611291565b60405180910390f35b3480156101a5575f80fd5b506101b96101b43660046112f8565b6104f8565b005b6101b96101c9366004611331565b61072c565b3480156101d9575f80fd5b506101e2600581565b60405160ff9091168152602001610191565b3480156101ff575f80fd5b5061021361020e36600461127a565b6109e8565b6040805160ff9094168452602084019290925290820152606001610191565b34801561023d575f80fd5b506102a461024c366004611351565b5f9182526001602081815260408085206001600160a01b039490941685526002909301905291208054910154909161ffff80831692620100008104821692640100000000820490921691600160301b90910460ff1690565b6040805195865261ffff94851660208701529284169285019290925290911660608301521515608082015260a001610191565b3480156102e2575f80fd5b506102eb606481565b60405161ffff9091168152602001610191565b348015610309575f80fd5b50610312610a47565b604051908152602001610191565b34801561032b575f80fd5b506101e2600281565b34801561033f575f80fd5b506101b961034e366004611351565b610aed565b34801561035e575f80fd5b505f54610371906001600160a01b031681565b6040516001600160a01b039091168152602001610191565b348015610394575f80fd5b506102eb603281565b3480156103a8575f80fd5b506102eb600a81565b3480156103bc575f80fd5b5061031260025481565b3480156103d1575f80fd5b506103126101f481565b3480156103e6575f80fd5b506101b96103f5366004611351565b610e90565b348015610405575f80fd5b50610312662386f26fc1000081565b34801561041f575f80fd5b506101b961042e36600461127a565b611120565b34801561043e575f80fd5b506103717f000000000000000000000000000000000000000000000000000000000000000081565b5f81815260016020526040902080546060919060ff16610495575050604080515f815260208101909152919050565b806001018054806020026020016040519081016040528092919081815260200182805480156104eb57602002820191905f5260205f20905b81546001600160a01b031681526001909101906020018083116104cd575b5050505050915050919050565b336001600160a01b037f000000000000000000000000000000000000000000000000000000000000000016146105405760405162461bcd60e51b81526004016101589061137b565b5f838152600160205260409020805460ff1661056e5760405162461bcd60e51b81526004016101589061139f565b60018154610100900460ff16600281111561058b5761058b6113c0565b146105a85760405162461bcd60e51b8152600401610158906113d4565b6001600160a01b0383165f908152600282016020526040902060010154600160301b900460ff1680156105fe57506001600160a01b0382165f908152600282016020526040902060010154600160301b900460ff165b6106385760405162461bcd60e51b815260206004820152600b60248201526a4e6f7420706c617965727360a81b6044820152606401610158565b816001600160a01b0316836001600160a01b0316036106825760405162461bcd60e51b81526004016101589060208082526004908201526329b2b63360e11b604082015260600190565b6001600160a01b038083165f908152600283016020526040808220549286168252812080548392906106b590849061140c565b90915550506001600160a01b038084165f8181526002850160205260408082209182556001909101805461ffff1916905551909186169087907f8e55b2482061eb0711ad0da64258fc5a4c2cdf72caf080344eb2622c0451c96b9061071d9086815260200190565b60405180910390a45050505050565b600a811080159061073e575060328111155b6107735760405162461bcd60e51b815260040161015890602080825260049082015263416d6d6f60e01b604082015260600190565b610784662386f26fc1000082611425565b34146107bc5760405162461bcd60e51b815260206004820152600760248201526614185e5b595b9d60ca1b6044820152606401610158565b5f828152600160205260409020805460ff166107ea5760405162461bcd60e51b81526004016101589061139f565b5f8154610100900460ff166002811115610806576108066113c0565b1461083f5760405162461bcd60e51b81526020600482015260096024820152684e6f74206c6f62627960b81b6044820152606401610158565b600181015460051161087c5760405162461bcd60e51b815260040161015890602080825260049082015263119d5b1b60e21b604082015260600190565b335f908152600282016020526040902060010154600160301b900460ff16156108d85760405162461bcd60e51b815260206004820152600e60248201526d105b1c9958591e481a9bda5b995960921b6044820152606401610158565b6040805160a081018252348082526064602080840182815261ffff88811686880190815260608701948552600160808801818152335f81815260028d0188529a8b2099518a55945198820180549351975191511515600160301b0266ff00000000000019928616640100000000029290921666ffffff0000000019988616620100000263ffffffff199095169a909516999099179290921795909516919091171790945585820180549283018155855284200180546001600160a01b031916909217909155600383018054919290916109b290849061140c565b9091555050604051339084907f87969bc7faf902221a147b95ceba76e011c5efb0339a0a8ee7a2bb82d9cfbbd6905f90a3505050565b5f81815260016020526040812080548291829160ff16610a11575f805f93509350935050610a40565b8054610100900460ff166002811115610a2c57610a2c6113c0565b600182015460039092015490945090925090505b9193909250565b5f336001600160a01b037f00000000000000000000000000000000000000000000000000000000000000001614610a905760405162461bcd60e51b81526004016101589061137b565b60025f8154610a9e9061143c565b91829055505f818152600160208190526040808320805461ffff19169092178255519293509183917fbd19c47e9925eb6f7be8bb1c13a841e0240aaeaf17f217e90022e9c8eb66877f91a25090565b336001600160a01b037f00000000000000000000000000000000000000000000000000000000000000001614610b355760405162461bcd60e51b81526004016101589061137b565b5f54600160a01b900460ff1615610b7a5760405162461bcd60e51b81526020600482015260096024820152681499595b9d1c985b9d60ba1b6044820152606401610158565b5f805460ff60a01b1916600160a01b178155828152600160205260409020805460ff16610bb95760405162461bcd60e51b81526004016101589061139f565b60018154610100900460ff166002811115610bd657610bd66113c0565b14610bf35760405162461bcd60e51b8152600401610158906113d4565b6001600160a01b0382165f908152600282016020526040902060010154600160301b900460ff16610c535760405162461bcd60e51b815260206004820152600a6024820152692737ba10383630bcb2b960b11b6044820152606401610158565b600381015447811115610c925760405162461bcd60e51b815260206004820152600760248201526642616c616e636560c81b6044820152606401610158565b5f8111610cca5760405162461bcd60e51b815260040161015890602080825260049082015263141bdbdb60e21b604082015260600190565b5f612710610cda6101f484611425565b610ce49190611454565b90505f610cf18284611473565b5f600386018190556001600160a01b038781168252600287016020526040808320839055875461ff00191661020017885582549051939450919291169084908381818185875af1925050503d805f8114610d66576040519150601f19603f3d011682016040523d82523d5f602084013e610d6b565b606091505b5050905080610da85760405162461bcd60e51b81526020600482015260096024820152684f776e65722070617960b81b6044820152606401610158565b5f866001600160a01b0316836040515f6040518083038185875af1925050503d805f8114610df1576040519150601f19603f3d011682016040523d82523d5f602084013e610df6565b606091505b5050905080610e345760405162461bcd60e51b815260206004820152600a60248201526957696e6e65722070617960b01b6044820152606401610158565b60408051858152602081018590526001600160a01b038916918a917f64e67454795640f66cef8019a707b9381952f2f1024a355d5470bafc82af1800910160405180910390a350505f805460ff60a01b19169055505050505050565b336001600160a01b037f00000000000000000000000000000000000000000000000000000000000000001614610ed85760405162461bcd60e51b81526004016101589061137b565b5f828152600160205260409020805460ff16610f065760405162461bcd60e51b81526004016101589061139f565b60018154610100900460ff166002811115610f2357610f236113c0565b14610f405760405162461bcd60e51b8152600401610158906113d4565b6001600160a01b0382165f908152600282016020526040902060010154600160301b900460ff16610fa05760405162461bcd60e51b815260206004820152600a6024820152692737ba10383630bcb2b960b11b6044820152606401610158565b6001600160a01b0382165f908152600282016020526040902054662386f26fc100001115610ffd5760405162461bcd60e51b815260206004820152600a6024820152694e6f2062616c616e636560b01b6044820152606401610158565b6001600160a01b0382165f90815260028201602052604090206001015462010000900461ffff1661105a5760405162461bcd60e51b81526020600482015260076024820152664e6f20616d6d6f60c81b6044820152606401610158565b6001600160a01b0382165f90815260028201602052604081208054662386f26fc10000929061108a908490611473565b90915550506001600160a01b0382165f9081526002828101602052604090912060019081018054919290916110ca90849062010000900461ffff16611486565b92506101000a81548161ffff021916908361ffff160217905550816001600160a01b0316837f436f1c6b04e762cf0d66f79e9ed6387efccca2c6d05b9cf9faf71f2aef6ac0fa60405160405180910390a3505050565b336001600160a01b037f000000000000000000000000000000000000000000000000000000000000000016146111685760405162461bcd60e51b81526004016101589061137b565b5f818152600160205260409020805460ff166111965760405162461bcd60e51b81526004016101589061139f565b5f8154610100900460ff1660028111156111b2576111b26113c0565b146111ec5760405162461bcd60e51b815260206004820152600a6024820152694261642073746174757360b01b6044820152606401610158565b600181015460028110801590611203575060058111155b61123e5760405162461bcd60e51b815260206004820152600c60248201526b141b185e595c8818dbdd5b9d60a21b6044820152606401610158565b815461ff00191661010017825560405183907f50ad08f58a27f2851d7e3a1b3a6a46b290f2ce677e99642d30ff639721e77790905f90a2505050565b5f6020828403121561128a575f80fd5b5035919050565b602080825282518282018190525f9190848201906040850190845b818110156112d15783516001600160a01b0316835292840192918401916001016112ac565b50909695505050505050565b80356001600160a01b03811681146112f3575f80fd5b919050565b5f805f6060848603121561130a575f80fd5b8335925061131a602085016112dd565b9150611328604085016112dd565b90509250925092565b5f8060408385031215611342575f80fd5b50508035926020909101359150565b5f8060408385031215611362575f80fd5b82359150611372602084016112dd565b90509250929050565b6020808252600a90820152692737ba1039b2b93b32b960b11b604082015260600190565b6020808252600790820152664e6f2067616d6560c81b604082015260600190565b634e487b7160e01b5f52602160045260245ffd5b6020808252600a90820152694e6f742061637469766560b01b604082015260600190565b634e487b7160e01b5f52601160045260245ffd5b8082018082111561141f5761141f6113f8565b92915050565b808202811582820484141761141f5761141f6113f8565b5f6001820161144d5761144d6113f8565b5060010190565b5f8261146e57634e487b7160e01b5f52601260045260245ffd5b500490565b8181038181111561141f5761141f6113f8565b61ffff8281168282160390808211156114a1576114a16113f8565b509291505056fea2646970667358221220da15105cfd369331f8854cfcb56e4e82d3e408be6e4e1f200490af06ff310f5d64736f6c63430008140033",
  "linkReferences": {},
  "deployedLinkReferences": {},
  "immutableReferences": {
    "4": [
      {
        "length": 32,
        "start": 1092
      },
      {
        "length": 32,
        "start": 1283
      },
      {
        "length": 32,
        "start": 2643
      },
      {
        "length": 32,
        "start": 2808
      },
      {
        "length": 32,
        "start": 3739
      },
      {
        "length": 32,
        "start": 4395
      }
    ]
  },
  "inputSourceName": "project/contracts/TankBlitz.sol",
  "buildInfoId": "solc-0_8_20-3e380e47d28b6f2a64c205f14b6d52c6dccb0f03"
}