{
  "_format": "hh3-artifact-1",
  "contractName": "TankBlitz",
  "sourceName": "contracts/TankBlitz.sol",
  "abi": [
    {
      "inputs": [
        {
          "internalType": "address",
          "name": "_server",
          "type": "address"
        }
      ],
      "stateMutability": "nonpayable",
      "type": "constructor"
    },
    {
      "anonymous": false,
      "inputs": [
        {
          "indexed": true,
          "internalType": "uint256",
          "name": "gameId",
          "type": "uint256"
        },
        {
          "indexed": true,
          "internalType": "address",
          "name": "player",
          "type": "address"
        }
      ],
      "name": "AmmoPurchase",
      "type": "event"
    },
    {
      "anonymous": false,
      "inputs": [
        {
          "indexed": true,
          "internalType": "uint256",
          "name": "gameId",
          "type": "uint256"
        }
      ],
      "name": "GameCreated",
      "type": "event"
    },
    {
      "anonymous": false,
      "inputs": [
        {
          "indexed": true,
          "internalType": "uint256",
          "name": "gameId",
          "type": "uint256"
        },
        {
          "indexed": true,
          "internalType": "address",
          "name": "winner",
          "type": "address"
        },
        {
          "indexed": false,
          "internalType": "uint256",
          "name": "ownerPayout",
          "type": "uint256"
        },
        {
          "indexed": false,
          "internalType": "uint256",
          "name": "winnerPayout",
          "type": "uint256"
        }
      ],
      "name": "GameEnded",
      "type": "event"
    },
    {
      "anonymous": false,
      "inputs": [
        {
          "indexed": true,
          "internalType": "uint256",
          "name": "gameId",
          "type": "uint256"
        }
      ],
      "name": "GameStarted",
      "type": "event"
    },
    {
      "anonymous": false,
      "inputs": [
        {
          "indexed": true,
          "internalType": "uint256",
          "name": "gameId",
          "type": "uint256"
        },
        {
          "indexed": true,
          "internalType": "address",
          "name": "killer",
          "type": "address"
        },
        {
          "indexed": true,
          "internalType": "address",
          "name": "victim",
          "type": "address"
        },
        {
          "indexed": false,
          "internalType": "uint256",
          "name": "pointsTransferred",
          "type": "uint256"
        }
      ],
      "name": "KillRecorded",
      "type": "event"
    },
    {
      "anonymous": false,
      "inputs": [
        {
          "indexed": true,
          "internalType": "uint256",
          "name": "gameId",
          "type": "uint256"
        },
        {
          "indexed": true,
          "internalType": "address",
          "name": "player",
          "type": "address"
        }
      ],
      "name": "PlayerJoined",
      "type": "event"
    },
    {
      "anonymous": false,
      "inputs": [
        {
          "indexed": true,
          "internalType": "uint256",
          "name": "gameId",
          "type": "uint256"
        },
        {
          "indexed": true,
          "internalType": "address",
          "name": "shooter",
          "type": "address"
        }
      ],
      "name": "ShotFired",
      "type": "event"
    },
    {
      "inputs": [],
      "name": "AMMO_POINT_COST",
      "outputs": [
        {
          "internalType": "uint256",
          "name": "",
          "type": "uint256"
        }
      ],
      "stateMutability": "view",
      "type": "function"
    },
    {
      "inputs": [],
      "name": "ATTACK_POWER",
      "outputs": [
        {
          "internalType": "uint16",
          "name": "",
          "type": "uint16"
        }
      ],
      "stateMutability": "view",
      "type": "function"
    },
    {
      "inputs": [],
      "name": "ENTRY_FEE",
      "outputs": [
        {
          "internalType": "uint256",
          "name": "",
          "type": "uint256"
        }
      ],
      "stateMutability": "view",
      "type": "function"
    },
    {
      "inputs": [],
      "name": "MAX_PLAYERS",
      "outputs": [
        {
          "internalType": "uint8",
          "name": "",
          "type": "uint8"
        }
      ],
      "stateMutability": "view",
      "type": "function"
    },
    {
      "inputs": [],
      "name": "MIN_PLAYERS",
      "outputs": [
        {
          "internalType": "uint8",
          "name": "",
          "type": "uint8"
        }
      ],
      "stateMutability": "view",
      "type": "function"
    },
    {
      "inputs": [],
      "name": "SHOT_PROTOCOL_POINTS",
      "outputs": [
        {
          "internalType": "uint256",
          "name": "",
          "type": "uint256"
        }
      ],
      "stateMutability": "view",
      "type": "function"
    },
    {
      "inputs": [],
      "name": "STARTING_AMMO",
      "outputs": [
        {
          "internalType": "uint16",
          "name": "",
          "type": "uint16"
        }
      ],
      "stateMutability": "view",
      "type": "function"
    },
    {
      "inputs": [],
      "name": "STARTING_HP",
      "outputs": [
        {
          "internalType": "uint16",
          "name": "",
          "type": "uint16"
        }
      ],
      "stateMutability": "view",
      "type": "function"
    },
    {
      "inputs": [],
      "name": "STARTING_POINTS",
      "outputs": [
        {
          "internalType": "uint256",
          "name": "",
          "type": "uint256"
        }
      ],
      "stateMutability": "view",
      "type": "function"
    },
    {
      "inputs": [
        {
          "internalType": "uint256",
          "name": "gameId",
          "type": "uint256"
        },
        {
          "internalType": "address",
          "name": "player",
          "type": "address"
        }
      ],
      "name": "buyAmmo",
      "outputs": [],
      "stateMutability": "nonpayable",
      "type": "function"
    },
    {
      "inputs": [],
      "name": "createGame",
      "outputs": [
        {
          "internalType": "uint256",
          "name": "gameId",
          "type": "uint256"
        }
      ],
      "stateMutability": "nonpayable",
      "type": "function"
    },
    {
      "inputs": [
        {
          "internalType": "uint256",
          "name": "gameId",
          "type": "uint256"
        },
        {
          "internalType": "address",
          "name": "winner",
          "type": "address"
        },
        {
          "internalType": "uint256",
          "name": "winnerPoints",
          "type": "uint256"
        }
      ],
      "name": "endGame",
      "outputs": [],
      "stateMutability": "nonpayable",
      "type": "function"
    },
    {
      "inputs": [
        {
          "internalType": "uint256",
          "name": "gameId",
          "type": "uint256"
        }
      ],
      "name": "getGameInfo",
      "outputs": [
        {
          "internalType": "uint8",
          "name": "status",
          "type": "uint8"
        },
        {
          "internalType": "uint256",
          "name": "playerCount",
          "type": "uint256"
        },
        {
          "internalType": "uint256",
          "name": "prizePool",
          "type": "uint256"
        },
        {
          "internalType": "uint256",
          "name": "protocolPoints",
          "type": "uint256"
        }
      ],
      "stateMutability": "view",
      "type": "function"
    },
    {
      "inputs": [
        {
          "internalType": "uint256",
          "name": "gameId",
          "type": "uint256"
        },
        {
          "internalType": "address",
          "name": "player",
          "type": "address"
        }
      ],
      "name": "getPlayer",
      "outputs": [
        {
          "internalType": "uint256",
          "name": "points",
          "type": "uint256"
        },
        {
          "internalType": "uint16",
          "name": "hp",
          "type": "uint16"
        },
        {
          "internalType": "uint16",
          "name": "ammo",
          "type": "uint16"
        },
        {
          "internalType": "uint16",
          "name": "attackPower",
          "type": "uint16"
        },
        {
          "internalType": "bool",
          "name": "joined",
          "type": "bool"
        }
      ],
      "stateMutability": "view",
      "type": "function"
    },
    {
      "inputs": [
        {
          "internalType": "uint256",
          "name": "gameId",
          "type": "uint256"
        }
      ],
      "name": "getPlayerList",
      "outputs": [
        {
          "internalType": "address[]",
          "name": "",
          "type": "address[]"
        }
      ],
      "stateMutability": "view",
      "type": "function"
    },
    {
      "inputs": [],
      "name": "nextGameId",
      "outputs": [
        {
          "internalType": "uint256",
          "name": "",
          "type": "uint256"
        }
      ],
      "stateMutability": "view",
      "type": "function"
    },
    {
      "inputs": [],
      "name": "owner",
      "outputs": [
        {
          "internalType": "address",
          "name": "",
          "type": "address"
        }
      ],
      "stateMutability": "view",
      "type": "function"
    },
    {
      "inputs": [
        {
          "internalType": "uint256",
          "name": "gameId",
          "type": "uint256"
        },
        {
          "internalType": "address",
          "name": "killer",
          "type": "address"
        },
        {
          "internalType": "address",
          "name": "victim",
          "type": "address"
        }
      ],
      "name": "recordKill",
      "outputs": [],
      "stateMutability": "nonpayable",
      "type": "function"
    },
    {
      "inputs": [
        {
          "internalType": "uint256",
          "name": "gameId",
          "type": "uint256"
        },
        {
          "internalType": "address",
          "name": "shooter",
          "type": "address"
        }
      ],
      "name": "recordShot",
      "outputs": [],
      "stateMutability": "nonpayable",
      "type": "function"
    },
    {
      "inputs": [
        {
          "internalType": "uint256",
          "name": "gameId",
          "type": "uint256"
        }
      ],
      "name": "registerPlayer",
      "outputs": [],
      "stateMutability": "payable",
      "type": "function"
    },
    {
      "inputs": [],
      "name": "server",
      "outputs": [
        {
          "internalType": "address",
          "name": "",
          "type": "address"
        }
      ],
      "stateMutability": "view",
      "type": "function"
    },
    {
      "inputs": [
        {
          "internalType": "uint256",
          "name": "gameId",
          "type": "uint256"
        }
      ],
      "name": "startGame",
      "outputs": [],
      "stateMutability": "nonpayable",
      "type": "function"
    },
    {
      "stateMutability": "payable",
      "type": "receive"
    }
  ],
  "bytecode": "0x60a060405234801561000f575f80fd5b5060405161189e38038061189e83398101604081905261002e91610093565b6001600160a01b0381166100715760405162461bcd60e51b815260206004820152600660248201526529b2b93b32b960d11b604482015260640160405180910390fd5b6001600160a01b03166080525f80546001600160a01b031916331790556100c0565b5f602082840312156100a3575f80fd5b81516001600160a01b03811681146100b9575f80fd5b9392505050565b60805161179c6101025f395f81816104a6015281816105650152818161080601528181610b1801528181610d1c01528181610fa501526110ff015261179c5ff3fe608060405260043610610134575f3560e01c806385f07bbe116100a8578063c07795321161006d578063c077953214610409578063dc403efd14610428578063e5ed1d591461043c578063f6d361cc1461045b578063fba7a9c114610476578063fd922a4214610495575f80fd5b806385f07bbe146103775780638da5cb5b1461038b578063ae70c748146103c1578063b135bbb0146103d5578063bb71166a146103ea575f80fd5b80635b77377e116100f95780635b77377e1461025c5780636454e58d146102705780636e6854ff146103155780637255d7291461033c5780637675e02214610350578063821644e614610364575f80fd5b8063200ad21b1461017b57806325ee2686146101b05780634411b3eb146101d157806347e1d550146101f75780635395acf91461023a575f80fd5b366101775760405162461bcd60e51b815260206004820152600e60248201526d139bc8191a5c9958dd081cd95b9960921b60448201526064015b60405180910390fd5b5f80fd5b348015610186575f80fd5b5061019a6101953660046114e7565b6104c8565b6040516101a791906114fe565b60405180910390f35b3480156101bb575f80fd5b506101cf6101ca366004611565565b61055a565b005b3480156101dc575f80fd5b506101e5600581565b60405160ff90911681526020016101a7565b348015610202575f80fd5b506102166102113660046114e7565b61078e565b6040805160ff909516855260208501939093529183015260608201526080016101a7565b348015610245575f80fd5b5061024e606481565b6040519081526020016101a7565b348015610267575f80fd5b5061024e600181565b34801561027b575f80fd5b506102e261028a36600461159e565b5f9182526001602081815260408085206001600160a01b039490941685526002909301905291208054910154909161ffff80831692620100008104821692640100000000820490921691600160301b90910460ff1690565b6040805195865261ffff94851660208701529284169285019290925290911660608301521515608082015260a0016101a7565b348015610320575f80fd5b50610329600a81565b60405161ffff90911681526020016101a7565b348015610347575f80fd5b5061024e6107fa565b34801561035b575f80fd5b50610329606481565b6101cf6103723660046114e7565b6108a0565b348015610382575f80fd5b506101e5600281565b348015610396575f80fd5b505f546103a9906001600160a01b031681565b6040516001600160a01b0390911681526020016101a7565b3480156103cc575f80fd5b5061024e600a81565b3480156103e0575f80fd5b5061024e60025481565b3480156103f5575f80fd5b506101cf61040436600461159e565b610b0d565b348015610414575f80fd5b506101cf61042336600461159e565b610d11565b348015610433575f80fd5b50610329601481565b348015610447575f80fd5b506101cf6104563660046114e7565b610f9a565b348015610466575f80fd5b5061024e67016345785d8a000081565b348015610481575f80fd5b506101cf6104903660046115c8565b6110f4565b3480156104a0575f80fd5b506103a97f000000000000000000000000000000000000000000000000000000000000000081565b5f81815260016020526040902080546060919060ff166104f7575050604080515f815260208101909152919050565b8060010180548060200260200160405190810160405280929190818152602001828054801561054d57602002820191905f5260205f20905b81546001600160a01b0316815260019091019060200180831161052f575b5050505050915050919050565b336001600160a01b037f000000000000000000000000000000000000000000000000000000000000000016146105a25760405162461bcd60e51b815260040161016e906115fa565b5f838152600160205260409020805460ff166105d05760405162461bcd60e51b815260040161016e9061161e565b60018154610100900460ff1660028111156105ed576105ed61163f565b1461060a5760405162461bcd60e51b815260040161016e90611653565b6001600160a01b0383165f908152600282016020526040902060010154600160301b900460ff16801561066057506001600160a01b0382165f908152600282016020526040902060010154600160301b900460ff165b61069a5760405162461bcd60e51b815260206004820152600b60248201526a4e6f7420706c617965727360a81b604482015260640161016e565b816001600160a01b0316836001600160a01b0316036106e45760405162461bcd60e51b815260040161016e9060208082526004908201526329b2b63360e11b604082015260600190565b6001600160a01b038083165f9081526002830160205260408082205492861682528120805483929061071790849061168b565b90915550506001600160a01b038084165f8181526002850160205260408082209182556001909101805461ffff1916905551909186169087907f8e55b2482061eb0711ad0da64258fc5a4c2cdf72caf080344eb2622c0451c96b9061077f9086815260200190565b60405180910390a45050505050565b5f81815260016020526040812080548291829182919060ff166107bd575f805f809450945094509450506107f3565b8054610100900460ff1660028111156107d8576107d861163f565b60018201546003830154600490930154919650945090925090505b9193509193565b5f336001600160a01b037f000000000000000000000000000000000000000000000000000000000000000016146108435760405162461bcd60e51b815260040161016e906115fa565b60025f8154610851906116a4565b91829055505f818152600160208190526040808320805461ffff19169092178255519293509183917fbd19c47e9925eb6f7be8bb1c13a841e0240aaeaf17f217e90022e9c8eb66877f91a25090565b67016345785d8a000034146108e35760405162461bcd60e51b8152602060048201526009602482015268456e7472792066656560b81b604482015260640161016e565b5f818152600160205260409020805460ff166109115760405162461bcd60e51b815260040161016e9061161e565b5f8154610100900460ff16600281111561092d5761092d61163f565b146109665760405162461bcd60e51b81526020600482015260096024820152684e6f74206c6f62627960b81b604482015260640161016e565b60018101546005116109a35760405162461bcd60e51b815260040161016e90602080825260049082015263119d5b1b60e21b604082015260600190565b335f908152600282016020526040902060010154600160301b900460ff16156109ff5760405162461bcd60e51b815260206004820152600e60248201526d105b1c9958591e481a9bda5b995960921b604482015260640161016e565b6040805160a0810182526064808252600a6020808401918252601484860190815260608501938452600160808601818152335f81815260028b01865298892097518855945196820180549351965191511515600160301b0266ff0000000000001961ffff938416640100000000021666ffffff0000000019988416620100000263ffffffff199096169990931698909817939093179590951694909417949094179093558482018054928301815584529183200180546001600160a01b0319169091179055600382018054349290610ad890849061168b565b9091555050604051339083907f87969bc7faf902221a147b95ceba76e011c5efb0339a0a8ee7a2bb82d9cfbbd6905f90a35050565b336001600160a01b037f00000000000000000000000000000000000000000000000000000000000000001614610b555760405162461bcd60e51b815260040161016e906115fa565b5f828152600160205260409020805460ff16610b835760405162461bcd60e51b815260040161016e9061161e565b60018154610100900460ff166002811115610ba057610ba061163f565b14610bbd5760405162461bcd60e51b815260040161016e90611653565b6001600160a01b0382165f908152600282016020526040902060010154600160301b900460ff16610c005760405162461bcd60e51b815260040161016e906116bc565b6001600160a01b0382165f908152600282016020526040902054600a1115610c535760405162461bcd60e51b8152602060048201526006602482015265506f696e747360d01b604482015260640161016e565b6001600160a01b0382165f90815260028201602052604081208054600a9290610c7d9084906116e0565b90915550506001600160a01b0382165f908152600282810160205260409091206001018054600a9290610cbb90849062010000900461ffff166116f3565b92506101000a81548161ffff021916908361ffff160217905550816001600160a01b0316837faa95b9a7b7a38eb35127cebfa8fd9855f5beb270db7caf2d0cd3c586da94861160405160405180910390a3505050565b336001600160a01b037f00000000000000000000000000000000000000000000000000000000000000001614610d595760405162461bcd60e51b815260040161016e906115fa565b5f828152600160205260409020805460ff16610d875760405162461bcd60e51b815260040161016e9061161e565b60018154610100900460ff166002811115610da457610da461163f565b14610dc15760405162461bcd60e51b815260040161016e90611653565b6001600160a01b0382165f908152600282016020526040902060010154600160301b900460ff16610e045760405162461bcd60e51b815260040161016e906116bc565b6001600160a01b0382165f90815260028201602052604090206001015462010000900461ffff16610e615760405162461bcd60e51b81526020600482015260076024820152664e6f20616d6d6f60c81b604482015260640161016e565b6001600160a01b0382165f90815260028201602052604090205460011115610eb45760405162461bcd60e51b8152602060048201526006602482015265506f696e747360d01b604482015260640161016e565b6001600160a01b0382165f908152600282810160205260409091206001908101805491929091610eef90849062010000900461ffff16611715565b92506101000a81548161ffff021916908361ffff1602179055506001816002015f846001600160a01b03166001600160a01b031681526020019081526020015f205f015f828254610f4091906116e0565b925050819055506001816004015f828254610f5b919061168b565b90915550506040516001600160a01b0383169084907f436f1c6b04e762cf0d66f79e9ed6387efccca2c6d05b9cf9faf71f2aef6ac0fa905f90a3505050565b336001600160a01b037f00000000000000000000000000000000000000000000000000000000000000001614610fe25760405162461bcd60e51b815260040161016e906115fa565b5f818152600160205260409020805460ff166110105760405162461bcd60e51b815260040161016e9061161e565b5f8154610100900460ff16600281111561102c5761102c61163f565b146110665760405162461bcd60e51b815260206004820152600a6024820152694261642073746174757360b01b604482015260640161016e565b60018101546002811080159061107d575060058111155b6110b85760405162461bcd60e51b815260206004820152600c60248201526b141b185e595c8818dbdd5b9d60a21b604482015260640161016e565b815461ff00191661010017825560405183907f50ad08f58a27f2851d7e3a1b3a6a46b290f2ce677e99642d30ff639721e77790905f90a2505050565b336001600160a01b037f0000000000000000000000000000000000000000000000000000000000000000161461113c5760405162461bcd60e51b815260040161016e906115fa565b5f54600160a01b900460ff16156111815760405162461bcd60e51b81526020600482015260096024820152681499595b9d1c985b9d60ba1b604482015260640161016e565b5f805460ff60a01b1916600160a01b178155838152600160205260409020805460ff166111c05760405162461bcd60e51b815260040161016e9061161e565b60018154610100900460ff1660028111156111dd576111dd61163f565b146111fa5760405162461bcd60e51b815260040161016e90611653565b6001600160a01b0383165f908152600282016020526040902060010154600160301b900460ff1661123d5760405162461bcd60e51b815260040161016e906116bc565b60018101545f61124e826064611730565b90505f811161128e5760405162461bcd60e51b815260206004820152600c60248201526b546f74616c20706f696e747360a01b604482015260640161016e565b808411156112ce5760405162461bcd60e51b815260206004820152600d60248201526c57696e6e657220706f696e747360981b604482015260640161016e565b60038301544781111561130d5760405162461bcd60e51b815260206004820152600760248201526642616c616e636560c81b604482015260640161016e565b5f61131886846116e0565b90505f836113268385611730565b6113309190611747565b90505f61133d82856116e0565b5f60038901819055600489018190556001600160a01b038b8116825260028a0160205260408083208390558a5461ff001916610200178b5582549051939450919291169084908381818185875af1925050503d805f81146113b9576040519150601f19603f3d011682016040523d82523d5f602084013e6113be565b606091505b50509050806113fb5760405162461bcd60e51b81526020600482015260096024820152684f776e65722070617960b81b604482015260640161016e565b5f8a6001600160a01b0316836040515f6040518083038185875af1925050503d805f8114611444576040519150601f19603f3d011682016040523d82523d5f602084013e611449565b606091505b50509050806114875760405162461bcd60e51b815260206004820152600a60248201526957696e6e65722070617960b01b604482015260640161016e565b60408051858152602081018590526001600160a01b038d16918e917f64e67454795640f66cef8019a707b9381952f2f1024a355d5470bafc82af1800910160405180910390a350505f805460ff60a01b1916905550505050505050505050565b5f602082840312156114f7575f80fd5b5035919050565b602080825282518282018190525f9190848201906040850190845b8181101561153e5783516001600160a01b031683529284019291840191600101611519565b50909695505050505050565b80356001600160a01b0381168114611560575f80fd5b919050565b5f805f60608486031215611577575f80fd5b833592506115876020850161154a565b91506115956040850161154a565b90509250925092565b5f80604083850312156115af575f80fd5b823591506115bf6020840161154a565b90509250929050565b5f805f606084860312156115da575f80fd5b833592506115ea6020850161154a565b9150604084013590509250925092565b6020808252600a90820152692737ba1039b2b93b32b960b11b604082015260600190565b6020808252600790820152664e6f2067616d6560c81b604082015260600190565b634e487b7160e01b5f52602160045260245ffd5b6020808252600a90820152694e6f742061637469766560b01b604082015260600190565b634e487b7160e01b5f52601160045260245ffd5b8082018082111561169e5761169e611677565b92915050565b5f600182016116b5576116b5611677565b5060010190565b6020808252600a90820152692737ba10383630bcb2b960b11b604082015260600190565b8181038181111561169e5761169e611677565b61ffff81811683821601908082111561170e5761170e611677565b5092915050565b61ffff82811682821603908082111561170e5761170e611677565b808202811582820484141761169e5761169e611677565b5f8261176157634e487b7160e01b5f52601260045260245ffd5b50049056fea2646970667358221220669f34b044e1745e7228c016964d8014d3ec7a458e2c22256d3f95c767b0edad64736f6c63430008140033",
  "linkReferences": {},
  "deployedLinkReferences": {},
  "immutableReferences": {
    "4": [
      {
        "length": 32,
        "start": 1190
      },
      {
        "length": 32,
        "start": 1381
      },
      {
        "length": 32,
        "start": 2054
      },
      {
        "length": 32,
        "start": 2840
      },
      {
        "length": 32,
        "start": 3356
      },
      {
        "length": 32,
        "start": 4005
      },
      {
        "length": 32,
        "start": 4351
      }
    ]
  },
  "inputSourceName": "project/contracts/TankBlitz.sol",
  "buildInfoId": "solc-0_8_20-74f34d5399e0327a24064b6fd7d03ad10c6d86bd"
}